{
  "abi": [
    {
      "inputs": [
        {
          "internalType": "contract IERC20",
          "name": "_stakeToken",
          "type": "address"
        },
        {
          "internalType": "contract IERC20",
          "name": "_rewardToken",
          "type": "address"
        }
      ],
      "stateMutability": "nonpayable",
      "type": "constructor"
    },
    {
      "inputs": [],
      "name": "Staking_NonZero",
      "type": "error"
    },
    {
      "inputs": [],
      "name": "Staking_TransferFailed",
      "type": "error"
    },
    {
      "anonymous": false,
      "inputs": [
        {
          "indexed": true,
          "internalType": "address",
          "name": "user",
          "type": "address"
        },
        {
          "indexed": true,
          "internalType": "uint256",
          "name": "amount",
          "type": "uint256"
        }
      ],
      "name": "StakeWithdrawn",
      "type": "event"
    },
    {
      "anonymous": false,
      "inputs": [
        {
          "indexed": true,
          "internalType": "address",
          "name": "user",
          "type": "address"
        },
        {
          "indexed": true,
          "internalType": "uint256",
          "name": "amount",
          "type": "uint256"
        }
      ],
      "name": "UserRewarded",
      "type": "event"
    },
    {
      "anonymous": false,
      "inputs": [
        {
          "indexed": true,
          "internalType": "address",
          "name": "user",
          "type": "address"
        },
        {
          "indexed": true,
          "internalType": "uint256",
          "name": "amount",
          "type": "uint256"
        }
      ],
      "name": "UserStaked",
      "type": "event"
    },
    {
      "inputs": [],
      "name": "claimReward",
      "outputs": [],
      "stateMutability": "nonpayable",
      "type": "function"
    },
    {
      "inputs": [],
      "name": "rewardPerToken",
      "outputs": [
        {
          "internalType": "uint256",
          "name": "",
          "type": "uint256"
        }
      ],
      "stateMutability": "view",
      "type": "function"
    },
    {
      "inputs": [],
      "name": "rewardToken",
      "outputs": [
        {
          "internalType": "contract IERC20",
          "name": "",
          "type": "address"
        }
      ],
      "stateMutability": "view",
      "type": "function"
    },
    {
      "inputs": [
        {
          "internalType": "address",
          "name": "user",
          "type": "address"
        }
      ],
      "name": "rewardsEarned",
      "outputs": [
        {
          "internalType": "uint256",
          "name": "",
          "type": "uint256"
        }
      ],
      "stateMutability": "view",
      "type": "function"
    },
    {
      "inputs": [
        {
          "internalType": "uint256",
          "name": "amount",
          "type": "uint256"
        }
      ],
      "name": "stake",
      "outputs": [],
      "stateMutability": "nonpayable",
      "type": "function"
    },
    {
      "inputs": [],
      "name": "stakeToken",
      "outputs": [
        {
          "internalType": "contract IERC20",
          "name": "",
          "type": "address"
        }
      ],
      "stateMutability": "view",
      "type": "function"
    },
    {
      "inputs": [],
      "name": "totalSupply",
      "outputs": [
        {
          "internalType": "uint256",
          "name": "",
          "type": "uint256"
        }
      ],
      "stateMutability": "view",
      "type": "function"
    },
    {
      "inputs": [
        {
          "internalType": "uint256",
          "name": "amount",
          "type": "uint256"
        }
      ],
      "name": "withdrawStake",
      "outputs": [],
      "stateMutability": "nonpayable",
      "type": "function"
    }
  ],
  "bytecode": {
    "object": "0x60c060405234801561001057600080fd5b5060405161086d38038061086d83398101604081905261002f91610062565b6001600160a01b039182166080521660a052610095565b80516001600160a01b038116811461005d57600080fd5b919050565b6000806040838503121561007557600080fd5b61007e83610046565b915061008c60208401610046565b90509250929050565b60805160a05161079f6100ce60003960008181610138015261055b01526000818160c30152818161022b0152610409015261079f6000f3fe608060405234801561001057600080fd5b50600436106100885760003560e01c8063a694fc3a1161005b578063a694fc3a14610110578063b88a802f14610123578063cd3daf9d1461012b578063f7c618c11461013357600080fd5b806318160ddd1461008d57806325d5971f146100a957806351ed6a30146100be5780638bfea439146100fd575b600080fd5b61009660015481565b6040519081526020015b60405180910390f35b6100bc6100b7366004610678565b61015a565b005b6100e57f000000000000000000000000000000000000000000000000000000000000000081565b6040516001600160a01b0390911681526020016100a0565b61009661010b366004610691565b6102f2565b6100bc61011e366004610678565b61036f565b6100bc61050d565b61009661061a565b6100e57f000000000000000000000000000000000000000000000000000000000000000081565b3361016361061a565b600055426002556001600160a01b038116156101ae57600080543382526004602052604090912055610194816102f2565b6001600160a01b0382166000908152600560205260409020555b816000036101cf57604051634804bf3b60e11b815260040160405180910390fd5b33600090815260036020526040812080548492906101ee9084906106d7565b92505081905550816001600082825461020791906106d7565b909155505060405163a9059cbb60e01b8152336004820152602481018390526000907f00000000000000000000000000000000000000000000000000000000000000006001600160a01b03169063a9059cbb906044016020604051808303816000875af115801561027c573d6000803e3d6000fd5b505050506040513d601f19601f820116820180604052508101906102a091906106ee565b9050806102c0576040516337fe98c960e01b815260040160405180910390fd5b604051839033907f8108595eb6bad3acefa9da467d90cc2217686d5c5ac85460f8b7849c840645fc90600090a3505050565b6001600160a01b0381166000908152600560209081526040808320546004909252822054670de0b6b3a76400009061032861061a565b61033291906106d7565b6001600160a01b0385166000908152600360205260409020546103559190610710565b61035f919061072f565b6103699190610751565b92915050565b3361037861061a565b600055426002556001600160a01b038116156103c3576000805433825260046020526040909120556103a9816102f2565b6001600160a01b0382166000908152600560205260409020555b816000036103e457604051634804bf3b60e11b815260040160405180910390fd5b6040516323b872dd60e01b8152336004820152306024820152604481018390526000907f00000000000000000000000000000000000000000000000000000000000000006001600160a01b0316906323b872dd906064016020604051808303816000875af115801561045a573d6000803e3d6000fd5b505050506040513d601f19601f8201168201806040525081019061047e91906106ee565b90508061049e576040516337fe98c960e01b815260040160405180910390fd5b604051839033907f8c265adcfa641899d6632b86254dda7a76f27701f1d21a732621d51f2328c46090600090a333600090815260036020526040812080548592906104ea908490610751565b9250508190555082600160008282546105039190610751565b9091555050505050565b3360009081526005602052604090205480156105ea57336000818152600560205260408082208290555163a9059cbb60e01b8152600481019290925260248201839052906001600160a01b037f0000000000000000000000000000000000000000000000000000000000000000169063a9059cbb906044016020604051808303816000875af11580156105a4573d6000803e3d6000fd5b505050506040513d601f19601f820116820180604052508101906105c891906106ee565b9050806105e8576040516337fe98c960e01b815260040160405180910390fd5b505b604051819033907fe366ef68d2c0620e9e4c5074fd7ad0ce6739b65287f9c2d09b7d002da556879b90600090a350565b600060015460000361062d575060005490565b60015460646002544261064091906106d7565b61064a9190610710565b61065c90670de0b6b3a7640000610710565b610666919061072f565b6000546106739190610751565b905090565b60006020828403121561068a57600080fd5b5035919050565b6000602082840312156106a357600080fd5b81356001600160a01b03811681146106ba57600080fd5b9392505050565b634e487b7160e01b600052601160045260246000fd5b6000828210156106e9576106e96106c1565b500390565b60006020828403121561070057600080fd5b815180151581146106ba57600080fd5b600081600019048311821515161561072a5761072a6106c1565b500290565b60008261074c57634e487b7160e01b600052601260045260246000fd5b500490565b60008219821115610764576107646106c1565b50019056fea26469706673582212208dd187d3b853d4d97218f3a00b685019b0e8bff4f234899db990e4204f0981c264736f6c634300080f0033",
    "linkReferences": {}
  },
  "methodIdentifiers": {
    "claimReward()": "b88a802f",
    "rewardPerToken()": "cd3daf9d",
    "rewardToken()": "f7c618c1",
    "rewardsEarned(address)": "8bfea439",
    "stake(uint256)": "a694fc3a",
    "stakeToken()": "51ed6a30",
    "totalSupply()": "18160ddd",
    "withdrawStake(uint256)": "25d5971f"
  },
  "id": 17
}